:020000002329B2
:0E000600213083120313FD00FD0B07280800B4
:100014000F3083120313FC004730FD00FD0B102842
:0A002400FC0B10280000000008008B
:06002E00000000000800C4
:1000340083160313A21B21288312861323288312F9
:1000440086178316221B2928831206132B28831252
:1000540006178316A21A31288312861233288312B4
:1000640086168316221A3928831206123B28831215
:10007400061666183F28061540280611861517200F
:1000840086118316A2194928831286134B288312DA
:1000940086178316221951288312061353288312B4
:1000A40006178316A2185928831286125B28831216
:1000B4008616831622186128831206126328831277
:1000C400061666186728061568280611861517206F
:0E00D4008611661C6F280A2070280320080081
:0E00E2008312031365088A0064088200080078
:1000F00083120313661083162108A2001A206614C7
:020100000800F5
:10010200831603138611061106128612061386132E
:1001120083128611061186130613861206120A200E
:100122000A200A20861606168615172086110A202E
:100132008615172086110A208615172086110A2097
:1001420006128615172086110A2086151720861199
:10015200861286178615172086110A208613061620
:1001620086151720861106128615172086110A2079
:1001720086151720861106168615172086110A2065
:10018200061286151720861186170617861606167A
:0C0192008615172086110A20661408004C
:10019E00E128803083120313ED00F428C030ED0007
:1001AE00F4289430ED00F428D430ED00F42880309B
:1001BE00ED00F428831203136D08013A0319D028B9
:1001CE006D08023A0319D5286D08033A0319D82889
:1001DE006D08043A0319DB28DE286E03F0006D0863
:1001EE00F0077008ED0070088316A2001A20661042
:1001FE008316A001200883126F07840000080319DC
:10020E0014298316200883126F07840000088316B2
:10021E00A10078208316A00A012983126614080013
:10022E0071208A110A128000840AE40A0319E50A71
:08023E00F003031D172908005D
:100246008E2283120313E701E8011030E900003023
:10025600EA00EB01EC01073083169C0006309F0094
:100266000F30850083128501880187018316860178
:100276008701803088008312081588178120013095
:100286008316A2001A200C308316A2001A20013011
:10029600ED000130EE005430EF00CF200230ED00CB
:1002A6000130EE005E30EF00CF200630FB00133049
:1002B600FC00AD30FD00FD0B5E29FC0B5E29FB0B3F
:1002C6005E290000000001308316A2001A200130CA
:1002D600ED000130EE003130EF00CF200230ED00AE
:1002E6000130EE003B30EF00CF200630FB0013302C
:1002F600FC00AD30FD00FD0B7E29FC0B7E29FB0BBF
:100306007E2900000000E701E80180306806F00061
:1003160080307002031D91290F3067020318A92946
:100326001C308316A2001A200230FB004530FC0068
:10033600A930FD00FD0B9D29FC0B9D29FB0B9D297A
:1003460000000000E70A0319E80A8829013083162D
:10035600A2001A200130ED000130EE004C30EF0013
:10036600CF208030F00080306A067002031DBD2960
:100376006908003C0318C52908150130E902031C69
:10038600EA03C62908118030F00080306C0670023E
:10039600031DCF296B08003C0318E5290814023019
:1003A600FB004530FC00A930FD00FD0BD829FC0BF5
:1003B600D829FB0BD8290000000008100130EB02F9
:1003C600031CEC03881BEB291030E9000030EA001F
:1003D60005080F3A031DFA2988140130ED0008308C
:1003E600EE004330EF00CF2001308700342A0508A5
:1003F6000E3A031D082A0130ED000830EE005A308F
:10040600EF00CF2003308700342A05080C3A031D7D
:10041600162A0130ED000830EE002A30EF00CF201A
:1004260007308700342A0508083A031D242A0130BC
:10043600ED000830EE002030EF00CF200F308700AF
:10044600342A0508003A031D322A0130ED0008302F
:10045600EE002530EF00CF201F308700342A0F3002
:1004660085000230FB004530FC00A930FD00FD0B85
:100476003A2AFC0B3A2AFB0B3A2A00000000A9296B
:02048600432A07
:10051C0020308400443083120313F0004930E4008F
:08052C000230E5001721080070
:0A04920048346934673468340034DC
:0A049C00463475346C346C340034BF
:0E04A6004D3465346434693475346D3400347B
:1004B40049346E34643469346334613474346F346D
:0404C400723400345A
:1004C80043345334453420343334333431340034F2
:1004D800563465347234793420344C346F3477347C
:0204E8000034DE
:1004EA004C346534763465346C343A342034003410
:0C04FA00573461347434653472340034BB
:080506004C346F3477340034EB
:0C050E004C346534763465346C340034B1
:02400E004A2F37
:00000001FF
